:100000000C9446000C9465000C9465000C946500FB
:100010000C9465000C9465000C9465000C946500CC
:100020000C9465000C9465000C9465000C946500BC
:100030000C9465000C9465000C9465000C946500AC
:100040000C9465000C9465000C9465000C9465009C
:100050000C9465000C9465000C9465000C9465008C
:100060000C9465000C9465000C9465000C9465007C
:100070000C9465000C9465000C9465000C9465006C
:100080000C9465000C9465000C94650011241FBE4F
:10009000CFEFD0E4DEBFCDBF11E0A0E0B1E0E8EFEC
:1000A000F3E000E00BBF02C007900D92AE30B10745
:1000B000D9F721E0AEE0B1E001C01D92A231B20754
:1000C000E1F70E94CC010C94FA010C940000CF934C
:1000D000DF9300D01F92CDB7DEB789837B836A831D
:1000E00089818A3031F48A819B81BC018DE00E9434
:1000F000670080EC90E0FC018081882F90E08072A6
:100100009927892BB1F386EC90E02981FC012083AB
:1001100080E090E00F900F900F90DF91CF910895C5
:10012000CF93DF93CDB7DEB780910F01909110018F
:100130008230910559F18330910528F4009749F0F8
:10014000019771F04EC08330910539F10497B9F1F0
:1001500048C081E090E09093100180930F014AC065
:1001600085E290E0FC01108280911101813039F428
:1001700082E090E09093100180930F013BC081E0FA
:1001800090E09093100180930F0134C083E090E0E1
:100190009093100180930F012DC080911101813047
:1001A00039F483E090E09093100180930F0122C016
:1001B00084E090E09093100180930F011BC0809128
:1001C0001101882339F484E090E09093100180932A
:1001D0000F0110C082E090E09093100180930F0116
:1001E00009C085E290E0FC0110821092100110928B
:1001F0000F01000080910F01909110018230910554
:1002000079F08330910520F4019709F4BAC0C0C099
:100210008330910509F4B7C0049709F4B6C0B8C09B
:1002200080910E01882309F057C085E290E0FC011F
:100230008081882331F485E290E021E0FC01208375
:10024000A6C085E290E0FC018081813031F485E236
:1002500090E023E0FC0120839AC085E290E0FC015D
:100260008081833031F485E290E027E0FC01208337
:100270008EC085E290E0FC018081873031F485E218
:1002800090E02FE0FC01208382C085E290E0FC0139
:1002900080818F3031F485E290E02FE1FC012083F2
:1002A00076C085E290E0FC0180818F3131F485E2F7
:1002B00090E02FE3FC0120836AC085E290E0FC011E
:1002C00080818F3309F063C085E290E0FC011082E9
:1002D00081E080930E015BC085E290E0FC018081AB
:1002E000882331F485E290E020E2FC0120834FC0B6
:1002F00085E290E0FC018081803231F485E290E07B
:1003000020E3FC01208343C085E290E0FC01808172
:10031000803331F485E290E028E3FC01208337C08C
:1003200085E290E0FC018081883331F485E290E041
:100330002CE3FC0120832BC085E290E0FC0180814E
:100340008C3331F485E290E02EE3FC0120831FC062
:1003500085E290E0FC0180818E3331F485E290E00B
:100360002FE3FC01208313C085E290E0FC01808133
:100370008F3369F485E290E0FC01108210920E0147
:1003800006C0000005C0000003C0000001C000005E
:100390000000DF91CF910895CF93DF93CDB7DEB703
:1003A00081E290E0FC01108282E290E02FEFFC01FC
:1003B000208384E290E02FEFFC01208385E290E02F
:1003C000FC01108210920E011092100110920F0188
:1003D00080E290E0FC018081882F90E08170992775
:1003E00021E0892B09F020E0822F809311010E94E7
:0803F0009000EECFF894FFCF5E
:0E03F80000000002000000006700000000008E
:00000001FF
