:100000000C9457000C9476000C9476000C947600B7
:100010000C9476000C9476000C9476000C94760088
:100020000C9476000C9476000C9476000C94760078
:100030000C9476000C9476000C9476000C94760068
:100040000C9476000C9476000C9476000C94760058
:100050000C9476000C9476000C9476000C94760048
:100060000C9476000C9476000C9476000C94760038
:100070000C9476000C9476000C9476000C94760028
:100080000C9476000C9476000C947600BB00C200B1
:10009000CB00F300FA0017011E013B014201890168
:1000A0008901700189017A01890184018901112482
:1000B0001FBECFEFD0E4DEBFCDBF11E0A0E0B1E0C6
:1000C000E4E9F3E000E00BBF02C007900D92AE3010
:1000D000B107D9F721E0AEE0B1E001C01D92A23135
:1000E000B207E1F70E9492010C94C8010C94000041
:1000F000CF93DF9300D01F92CDB7DEB789837B8388
:100100006A8389818A3031F48A819B81BC018DE0C8
:100110000E94780080EC90E0FC018081882F90E0C4
:1001200080729927892BB1F386EC90E02981FC013C
:10013000208380E090E00F900F900F90DF91CF919F
:100140000895CF93DF93CDB7DEB780910E019091E4
:100150000F01CC01A0E0B0E040E050E028E030E04A
:10016000841B950B2817390708F49EC08A5B9F4FA4
:10017000FC010C94BF0181E090E090930F0180930B
:100180000E0199C082E090E090930F0180930E01E0
:100190001092100190C080911101882339F482E0FF
:1001A00090E090930F0180930E0185C08091110122
:1001B000813039F485E090E090930F0180930E0137
:1001C0007AC080911101823039F483E090E09093FD
:1001D0000F0180930E016FC087E090E090930F01B4
:1001E00080930E0168C084E090E090930F018093AB
:1001F0000E0161C080911101823039F484E090E0F9
:1002000090930F0180930E0156C0809111018330AD
:1002100039F487E090E090930F0180930E014BC07A
:1002200082E090E090930F0180930E0144C086E03D
:1002300090E090930F0180930E013DC080911101D9
:10024000813039F486E090E090930F0180930E01A5
:1002500032C080911101833039F487E090E09093AF
:100260000F0180930E0127C082E090E090930F0170
:1002700080930E0120C088E090E090930F0180935E
:100280000E0119C080911101882339F482E090E0B9
:1002900090930F0180930E010EC088E090E0909340
:1002A0000F0180930E0107C01092100110920F01F0
:1002B00010920E01000080910E0190910F01CC016F
:1002C000A0E0B0E041E050E027E030E0841B950B77
:1002D00028173907E0F0815B9F4FFC010C94BF01A8
:1002E000809110018823B9F0809110018150809392
:1002F000100111C080911001893079F080911001B6
:100300008F5F8093100109C01092100107C0000098
:1003100005C0000003C0000001C000000000DF9124
:10032000CF910895CF93DF93CDB7DEB781E290E010
:10033000FC01108282E290E02FEFFC01208387E233
:1003400090E02FEFFC01208388E290E0FC01108216
:100350001092100110920F0110920E0180E290E0B5
:10036000FC01808180958370809311010E94A1001F
:1003700088E290E020911001FC012083EFCFEE0F86
:10038000FF1F0024001C0BBE0790F691E02D09947E
:04039000F894FFCF0F
:0E0394000000000200000000780000000000E1
:00000001FF
