:100000000C9457000C9476000C9476000C947600B7
:100010000C9476000C9476000C9476000C94760088
:100020000C9476000C9476000C9476000C94760078
:100030000C9476000C9476000C9476000C94760068
:100040000C9476000C9476000C9476000C94760058
:100050000C9476000C9476000C9476000C94760048
:100060000C9476000C9476000C9476000C94760038
:100070000C9476000C9476000C9476000C94760028
:100080000C9476000C9476000C947600BB00C200B1
:10009000CD00F500FC00190120013D01440197014C
:1000A0009701740197018201970190019701112432
:1000B0001FBECFEFD0E4DEBFCDBF11E0A0E0B1E0C6
:1000C000E0EAF3E000E00BBF02C007900D92AE3013
:1000D000B107D9F721E0AEE0B1E001C01D92A13136
:1000E000B207E1F70E94A0010C94CE010C9400002D
:1000F000CF93DF9300D01F92CDB7DEB789837B8388
:100100006A8389818A3031F48A819B81BC018DE0C8
:100110000E94780080EC90E0FC018081882F90E0C4
:1001200080729927892BB1F386EC90E02981FC013C
:10013000208380E090E00F900F900F90DF91CF919F
:100140000895CF93DF93CDB7DEB780910E019091E4
:100150000F01CC01A0E0B0E040E050E028E030E04A
:10016000841B950B2817390708F4A0C08A5B9F4FA2
:10017000FC010C94C50181E090E090930F01809305
:100180000E019DC082E090E090930F0180930E01DC
:1001900088E290E0FC01108292C0809110018823D7
:1001A00039F482E090E090930F0180930E0187C0B4
:1001B00080911001813039F485E090E090930F0137
:1001C00080930E017CC080911001823039F483E06D
:1001D00090E090930F0180930E0171C087E090E052
:1001E00090930F0180930E016AC084E090E0909399
:1001F0000F0180930E0163C080911001823039F4A9
:1002000084E090E090930F0180930E0158C080919C
:100210001001833039F487E090E090930F018093D0
:100220000E014DC082E090E090930F0180930E018B
:1002300046C086E090E090930F0180930E013FC08E
:1002400080911001813039F486E090E090930F01A5
:1002500080930E0134C080911001833039F487E01F
:1002600090E090930F0180930E0129C082E090E00E
:1002700090930F0180930E0122C088E090E090934C
:100280000F0180930E011BC080911001833039F45F
:1002900088E090E090930F0180930E0110C082E0FF
:1002A00090E090930F0180930E0109C088E290E0E6
:1002B000FC01108210920F0110920E01000080913B
:1002C0000E0190910F01CC01A0E0B0E041E050E0C0
:1002D00027E030E0841B950B2817390730F1815B4C
:1002E0009F4FFC010C94C50188E290E0FC018081E5
:1002F0008823F9F088E290E0FC0120812150FC0184
:10030000208317C088E290E0FC018081893099F059
:1003100088E290E0FC0120812F5FFC0120830BC06C
:1003200088E290E0FC01108207C0000005C00000D8
:1003300003C0000001C000000000DF91CF910895CC
:10034000CF93DF93CDB7DEB781E290E0FC0110825E
:1003500082E290E02FEFFC01208387E290E02FEF14
:10036000FC01208388E290E0FC01108210920F01D2
:1003700010920E0180E290E0FC01808180958370F4
:10038000809310010E94A100F5CFEE0FFF1F002403
:10039000001C0BBE0790F691E02D0994F894FFCF56
:0E03A0000000000200000000780000000000D5
:00000001FF
