:100000000C9446000C945D000C945D000C945D0013
:100010000C945D000C945D000C945D000C945D00EC
:100020000C945D000C945D000C945D000C945D00DC
:100030000C945D000C945D000C945D000C945D00CC
:100040000C945D000C945D000C945D000C945D00BC
:100050000C945D000C945D000C945D000C945D00AC
:100060000C945D000C945D000C945D000C945D009C
:100070000C945D000C945D000C945D000C945D008C
:100080000C945D000C945D000C945D0011241FBE67
:10009000CFEFD0E4DEBFCDBF11E0A0E0B1E0E0EEF5
:1000A000F1E000E00BBF02C007900D92AE30B10747
:1000B000D9F70E9488000C94EE000C940000CF93B6
:1000C000DF9300D01F92CDB7DEB789837B836A832D
:1000D00089818A3031F48A819B81BC018DE00E9444
:1000E0005F0080EC90E0FC018081882F90E08072BE
:1000F0009927892BB1F386EC90E02981FC012083BC
:1001000080E090E00F900F900F90DF91CF910895D5
:10011000CF93DF9300D0CDB7DEB781E290E0FC0152
:10012000108282E290E02FEFFC01208387E290E0D2
:100130002FEFFC01208388E290E0FC0110821A82FC
:10014000198280E290E0FC01808180958F708A8323
:1001500080E489838A81813019F08A81823019F4A0
:1001600080E6898335C08A81833019F08A818430A2
:1001700019F480E789832CC08A81853019F08A813F
:10018000863019F488E3898323C08A81873031F06F
:100190008A81883019F08A81893019F48CE3898347
:1001A00017C08A818A3031F08A818B3019F08A81B8
:1001B0008C3019F48EE389830BC08A818D3031F045
:1001C0008A818E3019F08A818F3011F48FE3898310
:1001D00088E290E02981FC012083B3CFF894FFCF1F
:0E01E00000000002000000005F0000000000B0
:00000001FF
